:0400000007EF00F016
:0A00080079820BED08F0F5EF0DF022
:10100000003738392F3435362A3132332D23303DED
:051010002B2569000022
:101016000600FACF68F0FBCF69F0F2A815EF08F0EA
:1010260017EF08F020EF08F0F2A21CEF08F01EEF11
:1010360008F020EF08F009EC0FF0F0A625EF08F015
:1010460027EF08F030EF08F0F0A02CEF08F02EEFB5
:1010560008F030EF08F007EC0FF0F0A835EF08F0D5
:1010660037EF08F040EF08F0F0A23CEF08F03EEF53
:1010760008F040EF08F005EC0FF0F2A645EF08F097
:1010860047EF08F062EF08F0F2A04CEF08F04EEFE1
:1010960008F062EF08F081A853EF08F055EF08F06A
:1010A60062EF08F06304D8A45BEF08F05DEF08F088
:1010B60062EF08F0000E636E000ED1EC0EF0F2A6A1
:1010C60067EF08F069EF08F084EF08F0F2A06EEF22
:1010D60008F070EF08F084EF08F081B875EF08F0BB
:1010E60077EF08F084EF08F06350D8A47DEF08F09E
:1010F6007FEF08F084EF08F0010E636E010ED1EC6D
:101106000EF0F2A689EF08F08BEF08F0A6EF08F0D4
:10111600F2A090EF08F092EF08F0A6EF08F081AA8F
:1011260097EF08F099EF08F0A6EF08F06204D8A44C
:101136009FEF08F0A1EF08F0A6EF08F0000E626E30
:10114600000EC4EC0EF0F2A6ABEF08F0ADEF08F01F
:10115600C8EF08F0F2A0B2EF08F0B4EF08F0C8EF5D
:1011660008F081BAB9EF08F0BBEF08F0C8EF08F055
:101176006250D8A4C1EF08F0C3EF08F0C8EF08F03A
:10118600010E626E010EC4EC0EF0F2A6CDEF08F071
:10119600CFEF08F0EAEF08F0F2A0D4EF08F0D6EFB0
:1011A60008F0EAEF08F081ACDBEF08F0DDEF08F0BD
:1011B600EAEF08F06104D8A4E3EF08F0E5EF08F0E1
:1011C600EAEF08F0000E616E000EB7EC0EF0F2A624
:1011D600EFEF08F0F1EF08F00CEF09F0F2A0F6EFF0
:1011E60008F0F8EF08F00CEF09F081BCFDEF08F00D
:1011F600FFEF08F00CEF09F06150D8A405EF09F0F5
:1012060007EF09F00CEF09F0010E616E010EB7EC65
:101216000EF0F2A611EF09F013EF09F02EEF09F028
:10122600F2A018EF09F01AEF09F02EEF09F081AEDF
:101236001FEF09F021EF09F02EEF09F06004D8A4A2
:1012460027EF09F029EF09F02EEF09F0000E606E86
:10125600000EAAEC0EF0F2A633EF09F035EF09F016
:1012660050EF09F0F2A03AEF09F03CEF09F050EF29
:1012760009F081BE41EF09F043EF09F050EF09F0A4
:101286006050D8A449EF09F04BEF09F050EF09F090
:10129600010E606E010EAAEC0EF09DAC55EF09F042
:1012A60057EF09F060EF09F09EAC5CEF09F05EEFD6
:1012B60009F060EF09F00BEC0FF0F2AA65EF09F008
:1012C60067EF09F070EF09F0F2A46CEF09F06EEF2A
:1012D60009F070EF09F0F5EC0EF09DA075EF09F03E
:1012E60077EF09F080EF09F09EA07CEF09F07EEF22
:1012F60009F080EF09F0EFEC0EF09DA285EF09F002
:1013060087EF09F090EF09F09EA28CEF09F08EEFBF
:1013160009F090EF09F001EC0FF0A0A295EF09F0AB
:1013260097EF09F0A0EF09F0A1A29CEF09F09EEF5C
:1013360009F0A0EF09F0E9EC0EF09DA4A5EF09F085
:10134600A7EF09F0B0EF09F09EA4ACEF09F0AEEFFD
:1013560009F0B0EF09F072EC0EF0A0A0B5EF09F0BD
:10136600B7EF09F0C0EF09F0A1A0BCEF09F0BEEF9E
:1013760009F0C0EF09F05BEC0EF069C0FBFF68C036
:10138600FAFF79921100010E716E6DC0D9FF6EC021
:10139600DAFFDF50D8A4D2EF09F0D4EF09F01FEF3F
:1013A6000AF0F8EF09F0BD50F00B0809BD6E72EFB8
:1013B6000AF0BD50F00B0909BD6E72EF0AF0BD5080
:1013C600F00B0209BD6E72EF0AF0BD50F00B0A0970
:1013D600BD6E72EF0AF0BD50F00B0B09BD6E72EFD9
:1013E6000AF0000E716E72EF0AF020EE02F06D50F8
:1013F600D9266E50DA22DF506F6E706A7050000A7E
:10140600D8B408EF0AF0F4EF09F06F50020AD8B426
:10141600E2EF09F00A0AD8B4D6EF09F0010AD8B407
:10142600DCEF09F0030AD8B4E8EF09F0010AD8B4F2
:10143600EEEF09F0F4EF09F06DC0D9FF6EC0DAFFE8
:10144600DE04D8A429EF0AF02BEF0AF072EF0AF0B7
:101456004BEF0AF0BA50F00B0809BA6E72EF0AF0B9
:10146600BA50F00B0909BA6E72EF0AF0BA50F00BD7
:101476000209BA6E72EF0AF0BA50F00B0A09BA6E98
:1014860072EF0AF0BA50F00B0B09BA6E72EF0AF05F
:1014960020EE02F06D50D9266E50DA22DF506F6EC4
:1014A600706A7050000AD8B45BEF0AF0F4EF09F0E6
:1014B6006F50020AD8B439EF0AF00A0AD8B42DEFF1
:1014C6000AF0010AD8B433EF0AF0030AD8B43FEFA2
:1014D6000AF0010AD8B445EF0AF0F4EF09F06DC03E
:1014E6006AF06EC06BF050EC0DF071501200010EF8
:1014F600726E6A506B10D8B483EF0AF085EF0AF06B
:1015060096EF0AF06AC0D9FF6BC0DAFFDF30E83227
:10151600E832070B6C6E070E6C6494EF0AF096EFD8
:101526000AF0F9EF0AF0000E726E1AEF0BF06AC0BD
:10153600D9FF6BC0DAFFDF30E832E832070B6C6E9A
:10154600010E6D6E6C2AAAEF0AF0D8906D366C2EDD
:10155600A8EF0AF06D50FF0A6E6E6AC0D9FF6BC025
:10156600DAFFDF50070B6F6E6F50020D560EF32435
:10157600D96E000EF420DA6EDECF70F0DDCF71F09A
:1015860070C0D9FF71C0DAFF6E50DF161AEF0BF08C
:101596006AC0D9FF6BC0DAFFDF30E832E832070BEA
:1015A6006C6E010E6D6E6C2ADBEF0AF0D8906D360C
:1015B6006C2ED9EF0AF06AC0D9FF6BC0DAFFDF5094
:1015C600070B6E6E6E50020D560EF324D96E000E8A
:1015D600F420DA6EDECF6FF0DDCF70F06FC0D9FF8A
:1015E60070C0DAFF6D50DF121AEF0BF06AC0D9FF38
:1015F6006BC0DAFFDFBC02EF0BF005EF0BF0010E5C
:1016060006EF0BF0000E6C6E6D6A6D50000AD8B4D2
:101616000FEF0BF096EF0AF06C50000AD8B49AEF71
:101626000AF0010AD8B4CBEF0AF096EF0AF072502E
:101636001200010E716E6DC0D9FF6EC0DAFFDF5069
:10164600D8A428EF0BF02AEF0BF06BEF0BF048EF66
:101656000BF0BD50F00B0409BD6EB4EF0BF0BD509E
:10166600F00B0509BD6EB4EF0BF0BD50F00B06098B
:10167600BD6EB4EF0BF0BD50F00B0709BD6EB4EFB5
:101686000BF0000E716EB4EF0BF020EE02F06D5011
:10169600D9266E50DA22DF506F6E706A7050000ADB
:1016A600D8B458EF0BF044EF0BF06F50040AD8B4DF
:1016B6002CEF0BF0010AD8B432EF0BF0030AD8B4C2
:1016C60038EF0BF0010AD8B43EEF0BF044EF0BF005
:1016D6006DC0D9FF6EC0DAFFDE04D8A475EF0BF03B
:1016E60077EF0BF0B4EF0BF091EF0BF0BA50F00B75
:1016F6000409BA6EB4EF0BF0BA50F00B0509BA6ED6
:10170600B4EF0BF0BA50F00B0609BA6EB4EF0BF05B
:10171600BA50F00B0709BA6EB4EF0BF020EE02F0E8
:101726006D50D9266E50DA22DF506F6E706A705097
:10173600000AD8B4A1EF0BF044EF0BF06F50040A87
:10174600D8B479EF0BF0010AD8B47FEF0BF0030A97
:10175600D8B485EF0BF0010AD8B48BEF0BF044EF49
:101766000BF06DC06AF06EC06BF050EC0DF071506E
:101776001200010E736E6A506B10D8B4C5EF0BF0F1
:10178600C7EF0BF0D8EF0BF06AC0D9FF6BC0DAFFDA
:10179600DF30E832E832070B6D6E070E6D64D6EF68
:1017A6000BF0D8EF0BF03BEF0CF0000E736E50EF22
:1017B6000CF06AC0D9FF6BC0DAFFDF30E832E832DE
:1017C600070B6D6E010E6E6E6D2AECEF0BF0D89066
:1017D6006E366D2EEAEF0BF06E50FF0A6F6E6AC022
:1017E600D9FF6BC0DAFFDF50070B706E7050020D29
:1017F6004C0EF324D96E000EF420DA6EDECF71F0B3
:10180600DDCF72F071C0D9FF72C0DAFF6F50DF16FC
:1018160050EF0CF06AC0D9FF6BC0DAFFDF30E83258
:10182600E832070B6D6E010E6E6E6D2A1DEF0CF021
:10183600D8906E366D2E1BEF0CF06AC0D9FF6BC0C8
:10184600DAFFDF50070B6F6E6F50020D4C0EF3245C
:10185600D96E000EF420DA6EDECF70F0DDCF71F0B7
:1018660070C0D9FF71C0DAFF6E50DF1250EF0CF076
:101876006C506D6E6E6A6E50000AD8B445EF0CF06F
:10188600D8EF0BF06D50000AD8B4DCEF0BF0010A6C
:10189600D8B40DEF0CF0D8EF0BF073501200000126
:1018A6008B518C11D8A45AEF0CF05CEF0CF060EF62
:1018B6000CF0000E8E6FBAEF0CF08BC0D9FF8CC007
:1018C600DAFFDF50D8A46AEF0CF06CEF0CF070EF83
:1018D6000CF0F00EBD167EEF0CF08BC0D9FF8CC05D
:1018E600DAFFDE04D8A47AEF0CF07CEF0CF07EEF82
:1018F6000CF0F00EBA1620EE01F08B51D9268C5161
:10190600DA22DF50D8A48AEF0CF08CEF0CF094EFBB
:101916000CF08BC06DF08CC06EF01CEC0BF0A8EFD9
:101926000CF020EE01F08B51D9268C51DA22DE0420
:10193600D8A4A0EF0CF0A2EF0CF0A8EF0CF08BC02F
:101946006DF08CC06EF0C6EC09F0030E00018B251D
:10195600746E000E8C21756EBFEC0DF08BC06AF0B4
:101966008CC06BF03EEC0EF0010E00018E6F8E51B6
:1019760012006C506D10D8A4C3EF0CF0C5EF0CF03C
:10198600C9EF0CF0000E706E0FEF0DF0B19020EE67
:1019960005F06C50D9266D50DA22DF50030B6E6EBF
:1019A6006E3AB1506E18CF0B6E18B16E6CC06AF0FD
:1019B6006DC06BF011EC0DF020EE03F06C50D926E3
:1019C6006D50DA22DECF6EF0DDCF6FF06FC06EF0B5
:1019D6006F6A6E50B36E20EE03F06C50D9266D50D0
:1019E600DA22DF50B26E20EE03F06C50D9266D502D
:1019F600DA22DECF07F0DDCF08F0A082A1926CC01C
:101A0600D9FF6DC0DAFFDECF09F0DDCF0AF0F28E26
:101A1600F28CB180010E706E7050120020EE05F04F
:101A26006A50D9266B50DA22DFB41CEF0DF01EEF98
:101A36000DF021EF0DF0B1924FEF0DF020EE05F015
:101A46006A50D9266B50DA22DFA42CEF0DF02EEF68
:101A56000DF04FEF0DF0B18220EE05F06A50D92659
:101A66006B50DA22DFA63AEF0DF03CEF0DF03FEFB8
:101A76000DF0B1844FEF0DF020EE05F06A50D92637
:101A86006B50DA22DFB64AEF0DF04CEF0DF04FEF58
:101A96000DF0B1944FEF0DF0120020EE04F06A50F5
:101AA600D9266B50DA22DF50D8A45CEF0DF05EEF3A
:101AB6000DF062EF0DF0B196B18C87EF0DF020EED0
:101AC60004F06A50D9266B50DA22DE04D8A46EEFF1
:101AD6000DF070EF0DF074EF0DF0B186B19C87EF4D
:101AE6000DF020EE04F06A50D9266B50DA22020E71
:101AF600DE18D8A481EF0DF083EF0DF087EF0DF01F
:101B0600B196B19C87EF0DF012006A506B10D8A405
:101B16008FEF0DF091EF0DF095EF0DF0000E6F6E5B
:101B2600BDEF0DF06CC070F06DC071F06AC0D9FFEA
:101B36006BC0DAFFDF50D8A4A3EF0DF0A5EF0DF0D0
:101B4600ABEF0DF070C0BEFF71C0BFFFBBEF0DF075
:101B56006AC0D9FF6BC0DAFFDE04D8A4B5EF0DF07A
:101B6600B7EF0DF0BBEF0DF070C0BBFF71C0BCFF4F
:101B7600010E6F6E6F50120074507510D8B4C6EF18
:101B86000DF0C8EF0DF0D9EF0DF074C0D9FF75C098
:101B9600DAFFDF30E832E832070B766E070E76643E
:101BA600D7EF0DF0D9EF0DF0DDEF0DF0000E776EEB
:101BB600F3EF0DF074C06AF075C06BF07AEC0AF0C2
:101BC600776E74C06AF075C06BF074C0D9FF75C0CB
:101BD600DAFF000EDFBE010E6C6EBCEC0BF0776E0A
:101BE60077501200F60EF66E1D0EF76E000EF86EAA
:101BF60000EE80F010EE0BF00900F5CFEEFFE55099
:101C0600E150FAE1120EF66E1D0EF76E000EF86E3A
:101C160000EE42F010EE22F00900F5CFEEFFE5509F
:101C2600E150FAE100EE01F0410EEE6AE806FDE150
:101C360079907992000120EF0EF0800E6A6E000E08
:101C46006B6EC30E6D6E500E6C6E88EC0DF0786E7A
:101C5600800E00018B6F000E8C6F52EC0CF0786ECC
:101C66003C0E6C6E000E6D6EBCEC0CF0786E3AEFAE
:101C76000EF007EF00F09D849E9420EE05F06A506A
:101C8600D9266B50DA22DECF2FF0DDCF30F0F28E80
:101C9600F28CA080A19020EE08F06A50D9266B50F5
:101CA600DA22DECF2DF0DDCF2EF0F28EF28C12008E
:101CB600A1902D502E10D8B463EF0EF065EF0EF004
:101CC60071EF0EF002D871EF0EF00500FA6E2D508E
:101CD600FD6E2E50FE6EFF6AFA50120012009E94A0
:101CE6002F503010D8B47AEF0EF07CEF0EF088EF5C
:101CF6000EF002D888EF0EF00500FA6E2F50FD6E3A
:101D06003050FE6EFF6AFA5012001200800F810FEB
:101D1600820F830F840F890F8A0F8B0F8C0F8D0F05
:101D2600920F930F940F950F960F010101016450C6
:101D36006510D8A4A1EF0EF0A3EF0EF0A5EF0EF0FC
:101D4600A9EF0EF06750B36E66C0B2FF1200646E64
:101D5600F2906450D8A4B2EF0EF0B4EF0EF0B6EFE6
:101D66000EF0B6EF0EF01200646EF2906450D8A436
:101D7600BFEF0EF0C1EF0EF0C3EF0EF0C3EF0EF0A3
:101D86001200646EF2906450D8A4CCEF0EF0CEEF41
:101D96000EF0D0EF0EF0D0EF0EF01200646EF2905F
:101DA6006450D8A4D9EF0EF0DBEF0EF0DDEF0EF0A5
:101DB600DDEF0EF012003C0E646E000E656E000E36
:101DC600676E000E666E9AEC0EF01200A192085035
:101DD600B36E07C0B2FF12009E900E50CF6E0DC0BC
:101DE600CEFF1200F2941250D76E11C0D6FF120029
:0B1DF6000001021200BC1D00000000F4
:101E02009E9234C0CCFF1200F0921200F0901200A9
:081E1200F29212009E9C1200E6
:020000040020DA
:08000000FFFFFFFFFFFFFFFF00
:020000040030CA
:0E000000FF020912FF8181FF0FC00FE00F40C9
:00000001FF
